{
  "contractName": "ReUsePointsToken",
  "abi": [
    {
      "inputs": [
        {
          "internalType": "uint256",
          "name": "initialSupply",
          "type": "uint256"
        }
      ],
      "stateMutability": "nonpayable",
      "type": "constructor"
    },
    {
      "anonymous": false,
      "inputs": [
        {
          "indexed": true,
          "internalType": "address",
          "name": "owner",
          "type": "address"
        },
        {
          "indexed": true,
          "internalType": "address",
          "name": "spender",
          "type": "address"
        },
        {
          "indexed": false,
          "internalType": "uint256",
          "name": "value",
          "type": "uint256"
        }
      ],
      "name": "Approval",
      "type": "event"
    },
    {
      "anonymous": false,
      "inputs": [
        {
          "indexed": true,
          "internalType": "address",
          "name": "user",
          "type": "address"
        },
        {
          "indexed": false,
          "internalType": "uint256",
          "name": "amount",
          "type": "uint256"
        }
      ],
      "name": "TokensBurned",
      "type": "event"
    },
    {
      "anonymous": false,
      "inputs": [
        {
          "indexed": true,
          "internalType": "address",
          "name": "user",
          "type": "address"
        },
        {
          "indexed": false,
          "internalType": "uint256",
          "name": "amount",
          "type": "uint256"
        }
      ],
      "name": "TokensRewarded",
      "type": "event"
    },
    {
      "anonymous": false,
      "inputs": [
        {
          "indexed": true,
          "internalType": "address",
          "name": "from",
          "type": "address"
        },
        {
          "indexed": true,
          "internalType": "address",
          "name": "to",
          "type": "address"
        },
        {
          "indexed": false,
          "internalType": "uint256",
          "name": "value",
          "type": "uint256"
        }
      ],
      "name": "Transfer",
      "type": "event"
    },
    {
      "inputs": [
        {
          "internalType": "address",
          "name": "owner",
          "type": "address"
        },
        {
          "internalType": "address",
          "name": "spender",
          "type": "address"
        }
      ],
      "name": "allowance",
      "outputs": [
        {
          "internalType": "uint256",
          "name": "",
          "type": "uint256"
        }
      ],
      "stateMutability": "view",
      "type": "function",
      "constant": true
    },
    {
      "inputs": [
        {
          "internalType": "address",
          "name": "spender",
          "type": "address"
        },
        {
          "internalType": "uint256",
          "name": "amount",
          "type": "uint256"
        }
      ],
      "name": "approve",
      "outputs": [
        {
          "internalType": "bool",
          "name": "",
          "type": "bool"
        }
      ],
      "stateMutability": "nonpayable",
      "type": "function"
    },
    {
      "inputs": [
        {
          "internalType": "address",
          "name": "account",
          "type": "address"
        }
      ],
      "name": "balanceOf",
      "outputs": [
        {
          "internalType": "uint256",
          "name": "",
          "type": "uint256"
        }
      ],
      "stateMutability": "view",
      "type": "function",
      "constant": true
    },
    {
      "inputs": [],
      "name": "decimals",
      "outputs": [
        {
          "internalType": "uint8",
          "name": "",
          "type": "uint8"
        }
      ],
      "stateMutability": "view",
      "type": "function",
      "constant": true
    },
    {
      "inputs": [
        {
          "internalType": "address",
          "name": "spender",
          "type": "address"
        },
        {
          "internalType": "uint256",
          "name": "subtractedValue",
          "type": "uint256"
        }
      ],
      "name": "decreaseAllowance",
      "outputs": [
        {
          "internalType": "bool",
          "name": "",
          "type": "bool"
        }
      ],
      "stateMutability": "nonpayable",
      "type": "function"
    },
    {
      "inputs": [
        {
          "internalType": "address",
          "name": "spender",
          "type": "address"
        },
        {
          "internalType": "uint256",
          "name": "addedValue",
          "type": "uint256"
        }
      ],
      "name": "increaseAllowance",
      "outputs": [
        {
          "internalType": "bool",
          "name": "",
          "type": "bool"
        }
      ],
      "stateMutability": "nonpayable",
      "type": "function"
    },
    {
      "inputs": [],
      "name": "name",
      "outputs": [
        {
          "internalType": "string",
          "name": "",
          "type": "string"
        }
      ],
      "stateMutability": "view",
      "type": "function",
      "constant": true
    },
    {
      "inputs": [],
      "name": "owner",
      "outputs": [
        {
          "internalType": "address",
          "name": "",
          "type": "address"
        }
      ],
      "stateMutability": "view",
      "type": "function",
      "constant": true
    },
    {
      "inputs": [],
      "name": "symbol",
      "outputs": [
        {
          "internalType": "string",
          "name": "",
          "type": "string"
        }
      ],
      "stateMutability": "view",
      "type": "function",
      "constant": true
    },
    {
      "inputs": [],
      "name": "totalSupply",
      "outputs": [
        {
          "internalType": "uint256",
          "name": "",
          "type": "uint256"
        }
      ],
      "stateMutability": "view",
      "type": "function",
      "constant": true
    },
    {
      "inputs": [
        {
          "internalType": "address",
          "name": "to",
          "type": "address"
        },
        {
          "internalType": "uint256",
          "name": "amount",
          "type": "uint256"
        }
      ],
      "name": "transfer",
      "outputs": [
        {
          "internalType": "bool",
          "name": "",
          "type": "bool"
        }
      ],
      "stateMutability": "nonpayable",
      "type": "function"
    },
    {
      "inputs": [
        {
          "internalType": "address",
          "name": "from",
          "type": "address"
        },
        {
          "internalType": "address",
          "name": "to",
          "type": "address"
        },
        {
          "internalType": "uint256",
          "name": "amount",
          "type": "uint256"
        }
      ],
      "name": "transferFrom",
      "outputs": [
        {
          "internalType": "bool",
          "name": "",
          "type": "bool"
        }
      ],
      "stateMutability": "nonpayable",
      "type": "function"
    },
    {
      "inputs": [
        {
          "internalType": "address",
          "name": "user",
          "type": "address"
        },
        {
          "internalType": "uint256",
          "name": "amount",
          "type": "uint256"
        }
      ],
      "name": "rewardUser",
      "outputs": [],
      "stateMutability": "nonpayable",
      "type": "function"
    },
    {
      "inputs": [
        {
          "internalType": "address",
          "name": "user",
          "type": "address"
        },
        {
          "internalType": "uint256",
          "name": "amount",
          "type": "uint256"
        }
      ],
      "name": "burnUserTokens",
      "outputs": [],
      "stateMutability": "nonpayable",
      "type": "function"
    }
  ],
  "bytecode": "0x60806040523480156200001157600080fd5b506040516200275938038062002759833981810160405281019062000037919062000411565b6040518060400160405280600b81526020017f5265557365506f696e74730000000000000000000000000000000000000000008152506040518060400160405280600381526020017f52555000000000000000000000000000000000000000000000000000000000008152508160039080519060200190620000bb92919062000321565b508060049080519060200190620000d492919062000321565b505050600081116200011d576040517f08c379a00000000000000000000000000000000000000000000000000000000081526004016200011490620004ca565b60405180910390fd5b33600560006101000a81548173ffffffffffffffffffffffffffffffffffffffff021916908373ffffffffffffffffffffffffffffffffffffffff1602179055506200019a3362000173620001a160201b60201c565b600a6200018191906200067c565b836200018e9190620006cd565b620001aa60201b60201c565b506200088f565b60006012905090565b600073ffffffffffffffffffffffffffffffffffffffff168273ffffffffffffffffffffffffffffffffffffffff16036200021c576040517f08c379a000000000000000000000000000000000000000000000000000000000815260040162000213906200077e565b60405180910390fd5b62000230600083836200031760201b60201c565b8060026000828254620002449190620007a0565b92505081905550806000808473ffffffffffffffffffffffffffffffffffffffff1673ffffffffffffffffffffffffffffffffffffffff168152602001908152602001600020600082825401925050819055508173ffffffffffffffffffffffffffffffffffffffff16600073ffffffffffffffffffffffffffffffffffffffff167fddf252ad1be2c89b69c2b068fc378daa952ba7f163c4a11628f55a4df523b3ef83604051620002f791906200080e565b60405180910390a362000313600083836200031c60201b60201c565b5050565b505050565b505050565b8280546200032f906200085a565b90600052602060002090601f0160209004810192826200035357600085556200039f565b82601f106200036e57805160ff19168380011785556200039f565b828001600101855582156200039f579182015b828111156200039e57825182559160200191906001019062000381565b5b509050620003ae9190620003b2565b5090565b5b80821115620003cd576000816000905550600101620003b3565b5090565b600080fd5b6000819050919050565b620003eb81620003d6565b8114620003f757600080fd5b50565b6000815190506200040b81620003e0565b92915050565b6000602082840312156200042a5762000429620003d1565b5b60006200043a84828501620003fa565b91505092915050565b600082825260208201905092915050565b7f496e697469616c20737570706c79206d7573742062652067726561746572207460008201527f68616e207a65726f000000000000000000000000000000000000000000000000602082015250565b6000620004b260288362000443565b9150620004bf8262000454565b604082019050919050565b60006020820190508181036000830152620004e581620004a3565b9050919050565b7f4e487b7100000000000000000000000000000000000000000000000000000000600052601160045260246000fd5b60008160011c9050919050565b6000808291508390505b60018511156200057a57808604811115620005525762000551620004ec565b5b6001851615620005625780820291505b808102905062000572856200051b565b945062000532565b94509492505050565b60008262000595576001905062000668565b81620005a5576000905062000668565b8160018114620005be5760028114620005c957620005ff565b600191505062000668565b60ff841115620005de57620005dd620004ec565b5b8360020a915084821115620005f857620005f7620004ec565b5b5062000668565b5060208310610133831016604e8410600b8410161715620006395782820a905083811115620006335762000632620004ec565b5b62000668565b62000648848484600162000528565b92509050818404811115620006625762000661620004ec565b5b81810290505b9392505050565b600060ff82169050919050565b60006200068982620003d6565b915062000696836200066f565b9250620006c57fffffffffffffffffffffffffffffffffffffffffffffffffffffffffffffffff848462000583565b905092915050565b6000620006da82620003d6565b9150620006e783620003d6565b9250817fffffffffffffffffffffffffffffffffffffffffffffffffffffffffffffffff0483118215151615620007235762000722620004ec565b5b828202905092915050565b7f45524332303a206d696e7420746f20746865207a65726f206164647265737300600082015250565b600062000766601f8362000443565b915062000773826200072e565b602082019050919050565b60006020820190508181036000830152620007998162000757565b9050919050565b6000620007ad82620003d6565b9150620007ba83620003d6565b9250827fffffffffffffffffffffffffffffffffffffffffffffffffffffffffffffffff03821115620007f257620007f1620004ec565b5b828201905092915050565b6200080881620003d6565b82525050565b6000602082019050620008256000830184620007fd565b92915050565b7f4e487b7100000000000000000000000000000000000000000000000000000000600052602260045260246000fd5b600060028204905060018216806200087357607f821691505b6020821081036200088957620008886200082b565b5b50919050565b611eba806200089f6000396000f3fe608060405234801561001057600080fd5b50600436106100ea5760003560e01c806370a082311161008c578063a457c2d711610066578063a457c2d714610261578063a9059cbb14610291578063dd62ed3e146102c1578063e4e103dc146102f1576100ea565b806370a08231146101f55780638da5cb5b1461022557806395d89b4114610243576100ea565b80631bcaea61116100c85780631bcaea611461015b57806323b872dd14610177578063313ce567146101a757806339509351146101c5576100ea565b806306fdde03146100ef578063095ea7b31461010d57806318160ddd1461013d575b600080fd5b6100f761030d565b6040516101049190611279565b60405180910390f35b61012760048036038101906101229190611334565b61039f565b604051610134919061138f565b60405180910390f35b6101456103c2565b60405161015291906113b9565b60405180910390f35b61017560048036038101906101709190611334565b6103cc565b005b610191600480360381019061018c91906113d4565b61058e565b60405161019e919061138f565b60405180910390f35b6101af6105bd565b6040516101bc9190611443565b60405180910390f35b6101df60048036038101906101da9190611334565b6105c6565b6040516101ec919061138f565b60405180910390f35b61020f600480360381019061020a919061145e565b6105fd565b60405161021c91906113b9565b60405180910390f35b61022d610645565b60405161023a919061149a565b60405180910390f35b61024b61066b565b6040516102589190611279565b60405180910390f35b61027b60048036038101906102769190611334565b6106fd565b604051610288919061138f565b60405180910390f35b6102ab60048036038101906102a69190611334565b610774565b6040516102b8919061138f565b60405180910390f35b6102db60048036038101906102d691906114b5565b610797565b6040516102e891906113b9565b60405180910390f35b61030b60048036038101906103069190611334565b61081e565b005b60606003805461031c90611524565b80601f016020809104026020016040519081016040528092919081815260200182805461034890611524565b80156103955780601f1061036a57610100808354040283529160200191610395565b820191906000526020600020905b81548152906001019060200180831161037857829003601f168201915b5050505050905090565b6000806103aa6109e0565b90506103b78185856109e8565b600191505092915050565b6000600254905090565b600560009054906101000a900473ffffffffffffffffffffffffffffffffffffffff1673ffffffffffffffffffffffffffffffffffffffff163373ffffffffffffffffffffffffffffffffffffffff161461045c576040517f08c379a0000000000000000000000000000000000000000000000000000000008152600401610453906115c7565b60405180910390fd5b600073ffffffffffffffffffffffffffffffffffffffff168273ffffffffffffffffffffffffffffffffffffffff16036104cb576040517f08c379a00000000000000000000000000000000000000000000000000000000081526004016104c290611633565b60405180910390fd5b6000811161050e576040517f08c379a00000000000000000000000000000000000000000000000000000000081526004016105059061169f565b60405180910390fd5b60006105186105bd565b600a6105249190611821565b8261052f919061186c565b905061053b8382610bb1565b8273ffffffffffffffffffffffffffffffffffffffff167ffd38818f5291bf0bb3a2a48aadc06ba8757865d1dabd804585338aab3009dcb68260405161058191906113b9565b60405180910390a2505050565b6000806105996109e0565b90506105a6858285610d7e565b6105b1858585610e0a565b60019150509392505050565b60006012905090565b6000806105d16109e0565b90506105f28185856105e38589610797565b6105ed91906118c6565b6109e8565b600191505092915050565b60008060008373ffffffffffffffffffffffffffffffffffffffff1673ffffffffffffffffffffffffffffffffffffffff168152602001908152602001600020549050919050565b600560009054906101000a900473ffffffffffffffffffffffffffffffffffffffff1681565b60606004805461067a90611524565b80601f01602080910402602001604051908101604052809291908181526020018280546106a690611524565b80156106f35780601f106106c8576101008083540402835291602001916106f3565b820191906000526020600020905b8154815290600101906020018083116106d657829003601f168201915b5050505050905090565b6000806107086109e0565b905060006107168286610797565b90508381101561075b576040517f08c379a00000000000000000000000000000000000000000000000000000000081526004016107529061198e565b60405180910390fd5b61076882868684036109e8565b60019250505092915050565b60008061077f6109e0565b905061078c818585610e0a565b600191505092915050565b6000600160008473ffffffffffffffffffffffffffffffffffffffff1673ffffffffffffffffffffffffffffffffffffffff16815260200190815260200160002060008373ffffffffffffffffffffffffffffffffffffffff1673ffffffffffffffffffffffffffffffffffffffff16815260200190815260200160002054905092915050565b600560009054906101000a900473ffffffffffffffffffffffffffffffffffffffff1673ffffffffffffffffffffffffffffffffffffffff163373ffffffffffffffffffffffffffffffffffffffff16146108ae576040517f08c379a00000000000000000000000000000000000000000000000000000000081526004016108a5906115c7565b60405180910390fd5b600073ffffffffffffffffffffffffffffffffffffffff168273ffffffffffffffffffffffffffffffffffffffff160361091d576040517f08c379a000000000000000000000000000000000000000000000000000000000815260040161091490611633565b60405180910390fd5b60008111610960576040517f08c379a00000000000000000000000000000000000000000000000000000000081526004016109579061169f565b60405180910390fd5b600061096a6105bd565b600a6109769190611821565b82610981919061186c565b905061098d8382611080565b8273ffffffffffffffffffffffffffffffffffffffff167f0d3ecba324ef5a283bcbd5d1a966cab18661432ab3575740c588f7a0144b0dfa826040516109d391906113b9565b60405180910390a2505050565b600033905090565b600073ffffffffffffffffffffffffffffffffffffffff168373ffffffffffffffffffffffffffffffffffffffff1603610a57576040517f08c379a0000000000000000000000000000000000000000000000000000000008152600401610a4e90611a20565b60405180910390fd5b600073ffffffffffffffffffffffffffffffffffffffff168273ffffffffffffffffffffffffffffffffffffffff1603610ac6576040517f08c379a0000000000000000000000000000000000000000000000000000000008152600401610abd90611ab2565b60405180910390fd5b80600160008573ffffffffffffffffffffffffffffffffffffffff1673ffffffffffffffffffffffffffffffffffffffff16815260200190815260200160002060008473ffffffffffffffffffffffffffffffffffffffff1673ffffffffffffffffffffffffffffffffffffffff168152602001908152602001600020819055508173ffffffffffffffffffffffffffffffffffffffff168373ffffffffffffffffffffffffffffffffffffffff167f8c5be1e5ebec7d5bd14f71427d1e84f3dd0314c0f7b2291e5b200ac8c7c3b92583604051610ba491906113b9565b60405180910390a3505050565b600073ffffffffffffffffffffffffffffffffffffffff168273ffffffffffffffffffffffffffffffffffffffff1603610c20576040517f08c379a0000000000000000000000000000000000000000000000000000000008152600401610c1790611b44565b60405180910390fd5b610c2c826000836111d6565b60008060008473ffffffffffffffffffffffffffffffffffffffff1673ffffffffffffffffffffffffffffffffffffffff16815260200190815260200160002054905081811015610cb2576040517f08c379a0000000000000000000000000000000000000000000000000000000008152600401610ca990611bd6565b60405180910390fd5b8181036000808573ffffffffffffffffffffffffffffffffffffffff1673ffffffffffffffffffffffffffffffffffffffff1681526020019081526020016000208190555081600260008282540392505081905550600073ffffffffffffffffffffffffffffffffffffffff168373ffffffffffffffffffffffffffffffffffffffff167fddf252ad1be2c89b69c2b068fc378daa952ba7f163c4a11628f55a4df523b3ef84604051610d6591906113b9565b60405180910390a3610d79836000846111db565b505050565b6000610d8a8484610797565b90507fffffffffffffffffffffffffffffffffffffffffffffffffffffffffffffffff8114610e045781811015610df6576040517f08c379a0000000000000000000000000000000000000000000000000000000008152600401610ded90611c42565b60405180910390fd5b610e0384848484036109e8565b5b50505050565b600073ffffffffffffffffffffffffffffffffffffffff168373ffffffffffffffffffffffffffffffffffffffff1603610e79576040517f08c379a0000000000000000000000000000000000000000000000000000000008152600401610e7090611cd4565b60405180910390fd5b600073ffffffffffffffffffffffffffffffffffffffff168273ffffffffffffffffffffffffffffffffffffffff1603610ee8576040517f08c379a0000000000000000000000000000000000000000000000000000000008152600401610edf90611d66565b60405180910390fd5b610ef38383836111d6565b60008060008573ffffffffffffffffffffffffffffffffffffffff1673ffffffffffffffffffffffffffffffffffffffff16815260200190815260200160002054905081811015610f79576040517f08c379a0000000000000000000000000000000000000000000000000000000008152600401610f7090611df8565b60405180910390fd5b8181036000808673ffffffffffffffffffffffffffffffffffffffff1673ffffffffffffffffffffffffffffffffffffffff16815260200190815260200160002081905550816000808573ffffffffffffffffffffffffffffffffffffffff1673ffffffffffffffffffffffffffffffffffffffff168152602001908152602001600020600082825401925050819055508273ffffffffffffffffffffffffffffffffffffffff168473ffffffffffffffffffffffffffffffffffffffff167fddf252ad1be2c89b69c2b068fc378daa952ba7f163c4a11628f55a4df523b3ef8460405161106791906113b9565b60405180910390a361107a8484846111db565b50505050565b600073ffffffffffffffffffffffffffffffffffffffff168273ffffffffffffffffffffffffffffffffffffffff16036110ef576040517f08c379a00000000000000000000000000000000000000000000000000000000081526004016110e690611e64565b60405180910390fd5b6110fb600083836111d6565b806002600082825461110d91906118c6565b92505081905550806000808473ffffffffffffffffffffffffffffffffffffffff1673ffffffffffffffffffffffffffffffffffffffff168152602001908152602001600020600082825401925050819055508173ffffffffffffffffffffffffffffffffffffffff16600073ffffffffffffffffffffffffffffffffffffffff167fddf252ad1be2c89b69c2b068fc378daa952ba7f163c4a11628f55a4df523b3ef836040516111be91906113b9565b60405180910390a36111d2600083836111db565b5050565b505050565b505050565b600081519050919050565b600082825260208201905092915050565b60005b8381101561121a5780820151818401526020810190506111ff565b83811115611229576000848401525b50505050565b6000601f19601f8301169050919050565b600061124b826111e0565b61125581856111eb565b93506112658185602086016111fc565b61126e8161122f565b840191505092915050565b600060208201905081810360008301526112938184611240565b905092915050565b600080fd5b600073ffffffffffffffffffffffffffffffffffffffff82169050919050565b60006112cb826112a0565b9050919050565b6112db816112c0565b81146112e657600080fd5b50565b6000813590506112f8816112d2565b92915050565b6000819050919050565b611311816112fe565b811461131c57600080fd5b50565b60008135905061132e81611308565b92915050565b6000806040838503121561134b5761134a61129b565b5b6000611359858286016112e9565b925050602061136a8582860161131f565b9150509250929050565b60008115159050919050565b61138981611374565b82525050565b60006020820190506113a46000830184611380565b92915050565b6113b3816112fe565b82525050565b60006020820190506113ce60008301846113aa565b92915050565b6000806000606084860312156113ed576113ec61129b565b5b60006113fb868287016112e9565b935050602061140c868287016112e9565b925050604061141d8682870161131f565b9150509250925092565b600060ff82169050919050565b61143d81611427565b82525050565b60006020820190506114586000830184611434565b92915050565b6000602082840312156114745761147361129b565b5b6000611482848285016112e9565b91505092915050565b611494816112c0565b82525050565b60006020820190506114af600083018461148b565b92915050565b600080604083850312156114cc576114cb61129b565b5b60006114da858286016112e9565b92505060206114eb858286016112e9565b9150509250929050565b7f4e487b7100000000000000000000000000000000000000000000000000000000600052602260045260246000fd5b6000600282049050600182168061153c57607f821691505b60208210810361154f5761154e6114f5565b5b50919050565b7f4f6e6c79206f776e65722063616e2063616c6c20746869732066756e6374696f60008201527f6e00000000000000000000000000000000000000000000000000000000000000602082015250565b60006115b16021836111eb565b91506115bc82611555565b604082019050919050565b600060208201905081810360008301526115e0816115a4565b9050919050565b7f496e76616c696420757365722061646472657373000000000000000000000000600082015250565b600061161d6014836111eb565b9150611628826115e7565b602082019050919050565b6000602082019050818103600083015261164c81611610565b9050919050565b7f416d6f756e74206d7573742062652067726561746572207468616e207a65726f600082015250565b60006116896020836111eb565b915061169482611653565b602082019050919050565b600060208201905081810360008301526116b88161167c565b9050919050565b7f4e487b7100000000000000000000000000000000000000000000000000000000600052601160045260246000fd5b60008160011c9050919050565b6000808291508390505b600185111561174557808604811115611721576117206116bf565b5b60018516156117305780820291505b808102905061173e856116ee565b9450611705565b94509492505050565b60008261175e576001905061181a565b8161176c576000905061181a565b8160018114611782576002811461178c576117bb565b600191505061181a565b60ff84111561179e5761179d6116bf565b5b8360020a9150848211156117b5576117b46116bf565b5b5061181a565b5060208310610133831016604e8410600b84101617156117f05782820a9050838111156117eb576117ea6116bf565b5b61181a565b6117fd84848460016116fb565b92509050818404811115611814576118136116bf565b5b81810290505b9392505050565b600061182c826112fe565b915061183783611427565b92506118647fffffffffffffffffffffffffffffffffffffffffffffffffffffffffffffffff848461174e565b905092915050565b6000611877826112fe565b9150611882836112fe565b9250817fffffffffffffffffffffffffffffffffffffffffffffffffffffffffffffffff04831182151516156118bb576118ba6116bf565b5b828202905092915050565b60006118d1826112fe565b91506118dc836112fe565b9250827fffffffffffffffffffffffffffffffffffffffffffffffffffffffffffffffff03821115611911576119106116bf565b5b828201905092915050565b7f45524332303a2064656372656173656420616c6c6f77616e63652062656c6f7760008201527f207a65726f000000000000000000000000000000000000000000000000000000602082015250565b60006119786025836111eb565b91506119838261191c565b604082019050919050565b600060208201905081810360008301526119a78161196b565b9050919050565b7f45524332303a20617070726f76652066726f6d20746865207a65726f2061646460008201527f7265737300000000000000000000000000000000000000000000000000000000602082015250565b6000611a0a6024836111eb565b9150611a15826119ae565b604082019050919050565b60006020820190508181036000830152611a39816119fd565b9050919050565b7f45524332303a20617070726f766520746f20746865207a65726f20616464726560008201527f7373000000000000000000000000000000000000000000000000000000000000602082015250565b6000611a9c6022836111eb565b9150611aa782611a40565b604082019050919050565b60006020820190508181036000830152611acb81611a8f565b9050919050565b7f45524332303a206275726e2066726f6d20746865207a65726f2061646472657360008201527f7300000000000000000000000000000000000000000000000000000000000000602082015250565b6000611b2e6021836111eb565b9150611b3982611ad2565b604082019050919050565b60006020820190508181036000830152611b5d81611b21565b9050919050565b7f45524332303a206275726e20616d6f756e7420657863656564732062616c616e60008201527f6365000000000000000000000000000000000000000000000000000000000000602082015250565b6000611bc06022836111eb565b9150611bcb82611b64565b604082019050919050565b60006020820190508181036000830152611bef81611bb3565b9050919050565b7f45524332303a20696e73756666696369656e7420616c6c6f77616e6365000000600082015250565b6000611c2c601d836111eb565b9150611c3782611bf6565b602082019050919050565b60006020820190508181036000830152611c5b81611c1f565b9050919050565b7f45524332303a207472616e736665722066726f6d20746865207a65726f20616460008201527f6472657373000000000000000000000000000000000000000000000000000000602082015250565b6000611cbe6025836111eb565b9150611cc982611c62565b604082019050919050565b60006020820190508181036000830152611ced81611cb1565b9050919050565b7f45524332303a207472616e7366657220746f20746865207a65726f206164647260008201527f6573730000000000000000000000000000000000000000000000000000000000602082015250565b6000611d506023836111eb565b9150611d5b82611cf4565b604082019050919050565b60006020820190508181036000830152611d7f81611d43565b9050919050565b7f45524332303a207472616e7366657220616d6f756e742065786365656473206260008201527f616c616e63650000000000000000000000000000000000000000000000000000602082015250565b6000611de26026836111eb565b9150611ded82611d86565b604082019050919050565b60006020820190508181036000830152611e1181611dd5565b9050919050565b7f45524332303a206d696e7420746f20746865207a65726f206164647265737300600082015250565b6000611e4e601f836111eb565b9150611e5982611e18565b602082019050919050565b60006020820190508181036000830152611e7d81611e41565b905091905056fea26469706673582212207dd7899cb3cf364d3db0e0f0a22adb436cf6cb0499758f90a05f007714ee8bc864736f6c634300080d0033",
  "immutableReferences": {},
  "source": "pragma solidity ^0.8.13;\n\nimport \"@openzeppelin/contracts/token/ERC20/ERC20.sol\";\n\ncontract ReUsePointsToken is ERC20 {\n    address public owner;\n\n    event TokensRewarded(address indexed user, uint256 amount);\n    event TokensBurned(address indexed user, uint256 amount);\n    \n    //только владелец контракта начисляет токены\n    modifier onlyOwner() {\n        require(msg.sender == owner, \"Only owner can call this function\");\n        _;\n    }\n\n    constructor(uint256 initialSupply) ERC20(\"ReUsePoints\", \"RUP\") {\n        require(initialSupply > 0, \"Initial supply must be greater than zero\");\n\n        owner = msg.sender;\n\n        _mint(msg.sender, initialSupply * 10 ** decimals());\n    }\n\n    // начисление токенов\n    function rewardUser(address user, uint256 amount) external onlyOwner {\n        require(user != address(0), \"Invalid user address\");\n        require(amount > 0, \"Amount must be greater than zero\");\n\n        uint256 tokenAmount = amount * 10 ** decimals();\n\n        _mint(user, tokenAmount);\n\n        emit TokensRewarded(user, tokenAmount);\n    }\n    \n\n    // сжигание токенов\n    function burnUserTokens(address user, uint256 amount) external onlyOwner {\n        require(user != address(0), \"Invalid user address\");\n        require(amount > 0, \"Amount must be greater than zero\");\n\n        uint256 tokenAmount = amount * 10 ** decimals();\n\n        _burn(user, tokenAmount);\n\n        emit TokensBurned(user, tokenAmount);\n    }\n}",
  "sourcePath": "D:\\blockchain\\reusepoints-mvp\\contracts\\ReUsePointsToken.sol",
  "compiler": {
    "name": "solc",
    "version": "0.8.13+commit.abaa5c0e.Emscripten.clang"
  },
  "schemaVersion": "3.4.16",
  "updatedAt": "2026-05-13T12:16:14.168Z",
  "networkType": "ethereum",
  "devdoc": {
    "kind": "dev",
    "methods": {
      "allowance(address,address)": {
        "details": "See {IERC20-allowance}."
      },
      "approve(address,uint256)": {
        "details": "See {IERC20-approve}. NOTE: If `amount` is the maximum `uint256`, the allowance is not updated on `transferFrom`. This is semantically equivalent to an infinite approval. Requirements: - `spender` cannot be the zero address."
      },
      "balanceOf(address)": {
        "details": "See {IERC20-balanceOf}."
      },
      "decimals()": {
        "details": "Returns the number of decimals used to get its user representation. For example, if `decimals` equals `2`, a balance of `505` tokens should be displayed to a user as `5.05` (`505 / 10 ** 2`). Tokens usually opt for a value of 18, imitating the relationship between Ether and Wei. This is the value {ERC20} uses, unless this function is overridden; NOTE: This information is only used for _display_ purposes: it in no way affects any of the arithmetic of the contract, including {IERC20-balanceOf} and {IERC20-transfer}."
      },
      "decreaseAllowance(address,uint256)": {
        "details": "Atomically decreases the allowance granted to `spender` by the caller. This is an alternative to {approve} that can be used as a mitigation for problems described in {IERC20-approve}. Emits an {Approval} event indicating the updated allowance. Requirements: - `spender` cannot be the zero address. - `spender` must have allowance for the caller of at least `subtractedValue`."
      },
      "increaseAllowance(address,uint256)": {
        "details": "Atomically increases the allowance granted to `spender` by the caller. This is an alternative to {approve} that can be used as a mitigation for problems described in {IERC20-approve}. Emits an {Approval} event indicating the updated allowance. Requirements: - `spender` cannot be the zero address."
      },
      "name()": {
        "details": "Returns the name of the token."
      },
      "symbol()": {
        "details": "Returns the symbol of the token, usually a shorter version of the name."
      },
      "totalSupply()": {
        "details": "See {IERC20-totalSupply}."
      },
      "transfer(address,uint256)": {
        "details": "See {IERC20-transfer}. Requirements: - `to` cannot be the zero address. - the caller must have a balance of at least `amount`."
      },
      "transferFrom(address,address,uint256)": {
        "details": "See {IERC20-transferFrom}. Emits an {Approval} event indicating the updated allowance. This is not required by the EIP. See the note at the beginning of {ERC20}. NOTE: Does not update the allowance if the current allowance is the maximum `uint256`. Requirements: - `from` and `to` cannot be the zero address. - `from` must have a balance of at least `amount`. - the caller must have allowance for ``from``'s tokens of at least `amount`."
      }
    },
    "version": 1
  },
  "userdoc": {
    "kind": "user",
    "methods": {},
    "version": 1
  }
}